{
  "_format": "hh-sol-artifact-1",
  "contractName": "SupplyChain",
  "sourceName": "contracts/SupplyChain.sol",
  "abi": [
    {
      "anonymous": false,
      "inputs": [
        {
          "indexed": true,
          "internalType": "address",
          "name": "from",
          "type": "address"
        },
        {
          "indexed": true,
          "internalType": "uint256",
          "name": "productId",
          "type": "uint256"
        },
        {
          "indexed": false,
          "internalType": "string",
          "name": "productName",
          "type": "string"
        }
      ],
      "name": "ProductCreated",
      "type": "event"
    },
    {
      "anonymous": false,
      "inputs": [
        {
          "indexed": true,
          "internalType": "uint256",
          "name": "productId",
          "type": "uint256"
        },
        {
          "indexed": false,
          "internalType": "string",
          "name": "status",
          "type": "string"
        }
      ],
      "name": "ProductStatusChanged",
      "type": "event"
    },
    {
      "anonymous": false,
      "inputs": [
        {
          "indexed": true,
          "internalType": "address",
          "name": "from",
          "type": "address"
        },
        {
          "indexed": true,
          "internalType": "address",
          "name": "to",
          "type": "address"
        },
        {
          "indexed": true,
          "internalType": "uint256",
          "name": "productId",
          "type": "uint256"
        }
      ],
      "name": "ProductTransferred",
      "type": "event"
    },
    {
      "inputs": [
        {
          "internalType": "string",
          "name": "_productName",
          "type": "string"
        }
      ],
      "name": "createProduct",
      "outputs": [],
      "stateMutability": "nonpayable",
      "type": "function"
    },
    {
      "inputs": [
        {
          "internalType": "uint256",
          "name": "_productId",
          "type": "uint256"
        }
      ],
      "name": "getProduct",
      "outputs": [
        {
          "internalType": "address",
          "name": "",
          "type": "address"
        },
        {
          "internalType": "string",
          "name": "",
          "type": "string"
        },
        {
          "internalType": "string",
          "name": "",
          "type": "string"
        }
      ],
      "stateMutability": "view",
      "type": "function"
    },
    {
      "inputs": [
        {
          "internalType": "address",
          "name": "_user",
          "type": "address"
        }
      ],
      "name": "getUserProducts",
      "outputs": [
        {
          "components": [
            {
              "internalType": "uint256",
              "name": "id",
              "type": "uint256"
            },
            {
              "internalType": "address",
              "name": "owner",
              "type": "address"
            },
            {
              "internalType": "string",
              "name": "productName",
              "type": "string"
            },
            {
              "internalType": "string",
              "name": "status",
              "type": "string"
            }
          ],
          "internalType": "struct SupplyChain.Product[]",
          "name": "",
          "type": "tuple[]"
        }
      ],
      "stateMutability": "view",
      "type": "function"
    },
    {
      "inputs": [
        {
          "internalType": "uint256",
          "name": "_productId",
          "type": "uint256"
        },
        {
          "internalType": "address",
          "name": "_to",
          "type": "address"
        }
      ],
      "name": "transferProduct",
      "outputs": [],
      "stateMutability": "nonpayable",
      "type": "function"
    },
    {
      "inputs": [
        {
          "internalType": "uint256",
          "name": "_productId",
          "type": "uint256"
        },
        {
          "internalType": "string",
          "name": "_status",
          "type": "string"
        }
      ],
      "name": "updateProductStatus",
      "outputs": [],
      "stateMutability": "nonpayable",
      "type": "function"
    }
  ],
  "bytecode": "0x608060405234801561001057600080fd5b50611381806100206000396000f3fe608060405234801561001057600080fd5b50600436106100575760003560e01c806302ec06be1461005c578063b9db15b414610078578063ba429578146100aa578063e43059e5146100c6578063fee7f53b146100e2575b600080fd5b61007660048036038101906100719190610ab7565b610112565b005b610092600480360381019061008d9190610b36565b610280565b6040516100a193929190610c23565b60405180910390f35b6100c460048036038101906100bf9190610c68565b61040a565b005b6100e060048036038101906100db9190610cf0565b61050c565b005b6100fc60048036038101906100f79190610d30565b610662565b6040516101099190610ef1565b60405180910390f35b6001600081548092919061012590610f42565b9190505550604051806080016040528060015481526020013373ffffffffffffffffffffffffffffffffffffffff1681526020018281526020016040518060400160405280600781526020017f437265617465640000000000000000000000000000000000000000000000000081525081525060008060015481526020019081526020016000206000820151816000015560208201518160010160006101000a81548173ffffffffffffffffffffffffffffffffffffffff021916908373ffffffffffffffffffffffffffffffffffffffff16021790555060408201518160020190816102129190611196565b5060608201518160030190816102289190611196565b509050506001543373ffffffffffffffffffffffffffffffffffffffff167fbf93c7a22ecc02b2b6548a47431bd8fc9026cad1121d08fe47faefbc14374b9e836040516102759190611268565b60405180910390a350565b600060608060008085815260200190815260200160002060010160009054906101000a900473ffffffffffffffffffffffffffffffffffffffff166000808681526020019081526020016000206002016000808781526020019081526020016000206003018180546102f190610fb9565b80601f016020809104026020016040519081016040528092919081815260200182805461031d90610fb9565b801561036a5780601f1061033f5761010080835404028352916020019161036a565b820191906000526020600020905b81548152906001019060200180831161034d57829003601f168201915b5050505050915080805461037d90610fb9565b80601f01602080910402602001604051908101604052809291908181526020018280546103a990610fb9565b80156103f65780601f106103cb576101008083540402835291602001916103f6565b820191906000526020600020905b8154815290600101906020018083116103d957829003601f168201915b505050505090509250925092509193909250565b3373ffffffffffffffffffffffffffffffffffffffff1660008084815260200190815260200160002060010160009054906101000a900473ffffffffffffffffffffffffffffffffffffffff1673ffffffffffffffffffffffffffffffffffffffff16146104ad576040517f08c379a00000000000000000000000000000000000000000000000000000000081526004016104a4906112fc565b60405180910390fd5b8060008084815260200190815260200160002060030190816104cf9190611196565b50817fa8393097e29b1f9ecbd4607e9ce3dfb43cd3b2734ad49c820ee1967179c92283826040516105009190611268565b60405180910390a25050565b3373ffffffffffffffffffffffffffffffffffffffff1660008084815260200190815260200160002060010160009054906101000a900473ffffffffffffffffffffffffffffffffffffffff1673ffffffffffffffffffffffffffffffffffffffff16146105af576040517f08c379a00000000000000000000000000000000000000000000000000000000081526004016105a6906112fc565b60405180910390fd5b8060008084815260200190815260200160002060010160006101000a81548173ffffffffffffffffffffffffffffffffffffffff021916908373ffffffffffffffffffffffffffffffffffffffff160217905550818173ffffffffffffffffffffffffffffffffffffffff163373ffffffffffffffffffffffffffffffffffffffff167fd4c698494e479f322b00d87495b6b88db019fd2b663be77331316299f495285d60405160405180910390a45050565b6060600060015467ffffffffffffffff8111156106825761068161098c565b5b6040519080825280602002602001820160405280156106bb57816020015b6106a861091f565b8152602001906001900390816106a05790505b5090506000805b6001548111610914578473ffffffffffffffffffffffffffffffffffffffff1660008083815260200190815260200160002060010160009054906101000a900473ffffffffffffffffffffffffffffffffffffffff1673ffffffffffffffffffffffffffffffffffffffff160361090157600080828152602001908152602001600020604051806080016040529081600082015481526020016001820160009054906101000a900473ffffffffffffffffffffffffffffffffffffffff1673ffffffffffffffffffffffffffffffffffffffff1673ffffffffffffffffffffffffffffffffffffffff1681526020016002820180546107c090610fb9565b80601f01602080910402602001604051908101604052809291908181526020018280546107ec90610fb9565b80156108395780601f1061080e57610100808354040283529160200191610839565b820191906000526020600020905b81548152906001019060200180831161081c57829003601f168201915b5050505050815260200160038201805461085290610fb9565b80601f016020809104026020016040519081016040528092919081815260200182805461087e90610fb9565b80156108cb5780601f106108a0576101008083540402835291602001916108cb565b820191906000526020600020905b8154815290600101906020018083116108ae57829003601f168201915b5050505050815250508383815181106108e7576108e661131c565b5b602002602001018190525081806108fd90610f42565b9250505b808061090c90610f42565b9150506106c2565b508192505050919050565b604051806080016040528060008152602001600073ffffffffffffffffffffffffffffffffffffffff16815260200160608152602001606081525090565b6000604051905090565b600080fd5b600080fd5b600080fd5b600080fd5b6000601f19601f8301169050919050565b7f4e487b7100000000000000000000000000000000000000000000000000000000600052604160045260246000fd5b6109c48261097b565b810181811067ffffffffffffffff821117156109e3576109e261098c565b5b80604052505050565b60006109f661095d565b9050610a0282826109bb565b919050565b600067ffffffffffffffff821115610a2257610a2161098c565b5b610a2b8261097b565b9050602081019050919050565b82818337600083830152505050565b6000610a5a610a5584610a07565b6109ec565b905082815260208101848484011115610a7657610a75610976565b5b610a81848285610a38565b509392505050565b600082601f830112610a9e57610a9d610971565b5b8135610aae848260208601610a47565b91505092915050565b600060208284031215610acd57610acc610967565b5b600082013567ffffffffffffffff811115610aeb57610aea61096c565b5b610af784828501610a89565b91505092915050565b6000819050919050565b610b1381610b00565b8114610b1e57600080fd5b50565b600081359050610b3081610b0a565b92915050565b600060208284031215610b4c57610b4b610967565b5b6000610b5a84828501610b21565b91505092915050565b600073ffffffffffffffffffffffffffffffffffffffff82169050919050565b6000610b8e82610b63565b9050919050565b610b9e81610b83565b82525050565b600081519050919050565b600082825260208201905092915050565b60005b83811015610bde578082015181840152602081019050610bc3565b60008484015250505050565b6000610bf582610ba4565b610bff8185610baf565b9350610c0f818560208601610bc0565b610c188161097b565b840191505092915050565b6000606082019050610c386000830186610b95565b8181036020830152610c4a8185610bea565b90508181036040830152610c5e8184610bea565b9050949350505050565b60008060408385031215610c7f57610c7e610967565b5b6000610c8d85828601610b21565b925050602083013567ffffffffffffffff811115610cae57610cad61096c565b5b610cba85828601610a89565b9150509250929050565b610ccd81610b83565b8114610cd857600080fd5b50565b600081359050610cea81610cc4565b92915050565b60008060408385031215610d0757610d06610967565b5b6000610d1585828601610b21565b9250506020610d2685828601610cdb565b9150509250929050565b600060208284031215610d4657610d45610967565b5b6000610d5484828501610cdb565b91505092915050565b600081519050919050565b600082825260208201905092915050565b6000819050602082019050919050565b610d9281610b00565b82525050565b610da181610b83565b82525050565b600082825260208201905092915050565b6000610dc382610ba4565b610dcd8185610da7565b9350610ddd818560208601610bc0565b610de68161097b565b840191505092915050565b6000608083016000830151610e096000860182610d89565b506020830151610e1c6020860182610d98565b5060408301518482036040860152610e348282610db8565b91505060608301518482036060860152610e4e8282610db8565b9150508091505092915050565b6000610e678383610df1565b905092915050565b6000602082019050919050565b6000610e8782610d5d565b610e918185610d68565b935083602082028501610ea385610d79565b8060005b85811015610edf5784840389528151610ec08582610e5b565b9450610ecb83610e6f565b925060208a01995050600181019050610ea7565b50829750879550505050505092915050565b60006020820190508181036000830152610f0b8184610e7c565b905092915050565b7f4e487b7100000000000000000000000000000000000000000000000000000000600052601160045260246000fd5b6000610f4d82610b00565b91507fffffffffffffffffffffffffffffffffffffffffffffffffffffffffffffffff8203610f7f57610f7e610f13565b5b600182019050919050565b7f4e487b7100000000000000000000000000000000000000000000000000000000600052602260045260246000fd5b60006002820490506001821680610fd157607f821691505b602082108103610fe457610fe3610f8a565b5b50919050565b60008190508160005260206000209050919050565b60006020601f8301049050919050565b600082821b905092915050565b60006008830261104c7fffffffffffffffffffffffffffffffffffffffffffffffffffffffffffffffff8261100f565b611056868361100f565b95508019841693508086168417925050509392505050565b6000819050919050565b600061109361108e61108984610b00565b61106e565b610b00565b9050919050565b6000819050919050565b6110ad83611078565b6110c16110b98261109a565b84845461101c565b825550505050565b600090565b6110d66110c9565b6110e18184846110a4565b505050565b5b81811015611105576110fa6000826110ce565b6001810190506110e7565b5050565b601f82111561114a5761111b81610fea565b61112484610fff565b81016020851015611133578190505b61114761113f85610fff565b8301826110e6565b50505b505050565b600082821c905092915050565b600061116d6000198460080261114f565b1980831691505092915050565b6000611186838361115c565b9150826002028217905092915050565b61119f82610ba4565b67ffffffffffffffff8111156111b8576111b761098c565b5b6111c28254610fb9565b6111cd828285611109565b600060209050601f83116001811461120057600084156111ee578287015190505b6111f8858261117a565b865550611260565b601f19841661120e86610fea565b60005b8281101561123657848901518255600182019150602085019450602081019050611211565b86831015611253578489015161124f601f89168261115c565b8355505b6001600288020188555050505b505050505050565b600060208201905081810360008301526112828184610bea565b905092915050565b7f596f7520617265206e6f7420746865206f776e6572206f66207468697320707260008201527f6f647563742e0000000000000000000000000000000000000000000000000000602082015250565b60006112e6602683610baf565b91506112f18261128a565b604082019050919050565b60006020820190508181036000830152611315816112d9565b9050919050565b7f4e487b7100000000000000000000000000000000000000000000000000000000600052603260045260246000fdfea264697066735822122033b62305455eeb0064e9ab082a96919da2f142215e0b8d9ae0385d7b3b719e3464736f6c63430008110033",
  "linkReferences": {},
  "deployedLinkReferences": {}
}