{
  "contractName": "SupplyChain",
  "abi": [
    {
      "anonymous": false,
      "inputs": [
        {
          "indexed": true,
          "internalType": "address",
          "name": "from",
          "type": "address"
        },
        {
          "indexed": true,
          "internalType": "uint256",
          "name": "productId",
          "type": "uint256"
        },
        {
          "indexed": false,
          "internalType": "string",
          "name": "productName",
          "type": "string"
        }
      ],
      "name": "ProductCreated",
      "type": "event"
    },
    {
      "anonymous": false,
      "inputs": [
        {
          "indexed": true,
          "internalType": "uint256",
          "name": "productId",
          "type": "uint256"
        },
        {
          "indexed": false,
          "internalType": "string",
          "name": "status",
          "type": "string"
        }
      ],
      "name": "ProductStatusChanged",
      "type": "event"
    },
    {
      "anonymous": false,
      "inputs": [
        {
          "indexed": true,
          "internalType": "address",
          "name": "from",
          "type": "address"
        },
        {
          "indexed": true,
          "internalType": "address",
          "name": "to",
          "type": "address"
        },
        {
          "indexed": true,
          "internalType": "uint256",
          "name": "productId",
          "type": "uint256"
        }
      ],
      "name": "ProductTransferred",
      "type": "event"
    },
    {
      "inputs": [
        {
          "internalType": "address",
          "name": "_user",
          "type": "address"
        }
      ],
      "name": "getUserProducts",
      "outputs": [
        {
          "components": [
            {
              "internalType": "uint256",
              "name": "id",
              "type": "uint256"
            },
            {
              "internalType": "address",
              "name": "owner",
              "type": "address"
            },
            {
              "internalType": "string",
              "name": "productName",
              "type": "string"
            },
            {
              "internalType": "string",
              "name": "status",
              "type": "string"
            }
          ],
          "internalType": "struct SupplyChain.Product[]",
          "name": "",
          "type": "tuple[]"
        }
      ],
      "stateMutability": "view",
      "type": "function",
      "constant": true
    },
    {
      "inputs": [
        {
          "internalType": "string",
          "name": "_productName",
          "type": "string"
        }
      ],
      "name": "createProduct",
      "outputs": [],
      "stateMutability": "nonpayable",
      "type": "function"
    },
    {
      "inputs": [
        {
          "internalType": "uint256",
          "name": "_productId",
          "type": "uint256"
        },
        {
          "internalType": "address",
          "name": "_to",
          "type": "address"
        }
      ],
      "name": "transferProduct",
      "outputs": [],
      "stateMutability": "nonpayable",
      "type": "function"
    },
    {
      "inputs": [
        {
          "internalType": "uint256",
          "name": "_productId",
          "type": "uint256"
        },
        {
          "internalType": "string",
          "name": "_status",
          "type": "string"
        }
      ],
      "name": "updateProductStatus",
      "outputs": [],
      "stateMutability": "nonpayable",
      "type": "function"
    },
    {
      "inputs": [
        {
          "internalType": "uint256",
          "name": "_productId",
          "type": "uint256"
        }
      ],
      "name": "getProduct",
      "outputs": [
        {
          "internalType": "address",
          "name": "",
          "type": "address"
        },
        {
          "internalType": "string",
          "name": "",
          "type": "string"
        },
        {
          "internalType": "string",
          "name": "",
          "type": "string"
        }
      ],
      "stateMutability": "view",
      "type": "function",
      "constant": true
    }
  ],
  "bytecode": "0x608060405234801561001057600080fd5b506111c7806100206000396000f3fe608060405234801561001057600080fd5b50600436106100575760003560e01c806302ec06be1461005c578063b9db15b414610078578063ba429578146100aa578063e43059e5146100c6578063fee7f53b146100e2575b600080fd5b61007660048036038101906100719190610b70565b610112565b005b610092600480360381019061008d9190610bef565b61028e565b6040516100a193929190610ce5565b60405180910390f35b6100c460048036038101906100bf9190610d2a565b610418565b005b6100e060048036038101906100db9190610db2565b610521565b005b6100fc60048036038101906100f79190610df2565b610677565b6040516101099190610fb3565b60405180910390f35b6001600081548092919061012590611004565b9190505550604051806080016040528060015481526020013373ffffffffffffffffffffffffffffffffffffffff1681526020018281526020016040518060400160405280600781526020017f437265617465640000000000000000000000000000000000000000000000000081525081525060008060015481526020019081526020016000206000820151816000015560208201518160010160006101000a81548173ffffffffffffffffffffffffffffffffffffffff021916908373ffffffffffffffffffffffffffffffffffffffff1602179055506040820151816002019080519060200190610219929190610935565b506060820151816003019080519060200190610236929190610935565b509050506001543373ffffffffffffffffffffffffffffffffffffffff167fbf93c7a22ecc02b2b6548a47431bd8fc9026cad1121d08fe47faefbc14374b9e83604051610283919061104d565b60405180910390a350565b600060608060008085815260200190815260200160002060010160009054906101000a900473ffffffffffffffffffffffffffffffffffffffff166000808681526020019081526020016000206002016000808781526020019081526020016000206003018180546102ff9061109e565b80601f016020809104026020016040519081016040528092919081815260200182805461032b9061109e565b80156103785780601f1061034d57610100808354040283529160200191610378565b820191906000526020600020905b81548152906001019060200180831161035b57829003601f168201915b5050505050915080805461038b9061109e565b80601f01602080910402602001604051908101604052809291908181526020018280546103b79061109e565b80156104045780601f106103d957610100808354040283529160200191610404565b820191906000526020600020905b8154815290600101906020018083116103e757829003601f168201915b505050505090509250925092509193909250565b3373ffffffffffffffffffffffffffffffffffffffff1660008084815260200190815260200160002060010160009054906101000a900473ffffffffffffffffffffffffffffffffffffffff1673ffffffffffffffffffffffffffffffffffffffff16146104bb576040517f08c379a00000000000000000000000000000000000000000000000000000000081526004016104b290611142565b60405180910390fd5b8060008084815260200190815260200160002060030190805190602001906104e4929190610935565b50817fa8393097e29b1f9ecbd4607e9ce3dfb43cd3b2734ad49c820ee1967179c9228382604051610515919061104d565b60405180910390a25050565b3373ffffffffffffffffffffffffffffffffffffffff1660008084815260200190815260200160002060010160009054906101000a900473ffffffffffffffffffffffffffffffffffffffff1673ffffffffffffffffffffffffffffffffffffffff16146105c4576040517f08c379a00000000000000000000000000000000000000000000000000000000081526004016105bb90611142565b60405180910390fd5b8060008084815260200190815260200160002060010160006101000a81548173ffffffffffffffffffffffffffffffffffffffff021916908373ffffffffffffffffffffffffffffffffffffffff160217905550818173ffffffffffffffffffffffffffffffffffffffff163373ffffffffffffffffffffffffffffffffffffffff167fd4c698494e479f322b00d87495b6b88db019fd2b663be77331316299f495285d60405160405180910390a45050565b6060600060015467ffffffffffffffff81111561069757610696610a45565b5b6040519080825280602002602001820160405280156106d057816020015b6106bd6109bb565b8152602001906001900390816106b55790505b5090506000805b600154811161092a578473ffffffffffffffffffffffffffffffffffffffff1660008083815260200190815260200160002060010160009054906101000a900473ffffffffffffffffffffffffffffffffffffffff1673ffffffffffffffffffffffffffffffffffffffff16141561091757600080828152602001908152602001600020604051806080016040529081600082015481526020016001820160009054906101000a900473ffffffffffffffffffffffffffffffffffffffff1673ffffffffffffffffffffffffffffffffffffffff1673ffffffffffffffffffffffffffffffffffffffff1681526020016002820180546107d69061109e565b80601f01602080910402602001604051908101604052809291908181526020018280546108029061109e565b801561084f5780601f106108245761010080835404028352916020019161084f565b820191906000526020600020905b81548152906001019060200180831161083257829003601f168201915b505050505081526020016003820180546108689061109e565b80601f01602080910402602001604051908101604052809291908181526020018280546108949061109e565b80156108e15780601f106108b6576101008083540402835291602001916108e1565b820191906000526020600020905b8154815290600101906020018083116108c457829003601f168201915b5050505050815250508383815181106108fd576108fc611162565b5b6020026020010181905250818061091390611004565b9250505b808061092290611004565b9150506106d7565b508192505050919050565b8280546109419061109e565b90600052602060002090601f01602090048101928261096357600085556109aa565b82601f1061097c57805160ff19168380011785556109aa565b828001600101855582156109aa579182015b828111156109a957825182559160200191906001019061098e565b5b5090506109b791906109f9565b5090565b604051806080016040528060008152602001600073ffffffffffffffffffffffffffffffffffffffff16815260200160608152602001606081525090565b5b80821115610a125760008160009055506001016109fa565b5090565b6000604051905090565b600080fd5b600080fd5b600080fd5b600080fd5b6000601f19601f8301169050919050565b7f4e487b7100000000000000000000000000000000000000000000000000000000600052604160045260246000fd5b610a7d82610a34565b810181811067ffffffffffffffff82111715610a9c57610a9b610a45565b5b80604052505050565b6000610aaf610a16565b9050610abb8282610a74565b919050565b600067ffffffffffffffff821115610adb57610ada610a45565b5b610ae482610a34565b9050602081019050919050565b82818337600083830152505050565b6000610b13610b0e84610ac0565b610aa5565b905082815260208101848484011115610b2f57610b2e610a2f565b5b610b3a848285610af1565b509392505050565b600082601f830112610b5757610b56610a2a565b5b8135610b67848260208601610b00565b91505092915050565b600060208284031215610b8657610b85610a20565b5b600082013567ffffffffffffffff811115610ba457610ba3610a25565b5b610bb084828501610b42565b91505092915050565b6000819050919050565b610bcc81610bb9565b8114610bd757600080fd5b50565b600081359050610be981610bc3565b92915050565b600060208284031215610c0557610c04610a20565b5b6000610c1384828501610bda565b91505092915050565b600073ffffffffffffffffffffffffffffffffffffffff82169050919050565b6000610c4782610c1c565b9050919050565b610c5781610c3c565b82525050565b600081519050919050565b600082825260208201905092915050565b60005b83811015610c97578082015181840152602081019050610c7c565b83811115610ca6576000848401525b50505050565b6000610cb782610c5d565b610cc18185610c68565b9350610cd1818560208601610c79565b610cda81610a34565b840191505092915050565b6000606082019050610cfa6000830186610c4e565b8181036020830152610d0c8185610cac565b90508181036040830152610d208184610cac565b9050949350505050565b60008060408385031215610d4157610d40610a20565b5b6000610d4f85828601610bda565b925050602083013567ffffffffffffffff811115610d7057610d6f610a25565b5b610d7c85828601610b42565b9150509250929050565b610d8f81610c3c565b8114610d9a57600080fd5b50565b600081359050610dac81610d86565b92915050565b60008060408385031215610dc957610dc8610a20565b5b6000610dd785828601610bda565b9250506020610de885828601610d9d565b9150509250929050565b600060208284031215610e0857610e07610a20565b5b6000610e1684828501610d9d565b91505092915050565b600081519050919050565b600082825260208201905092915050565b6000819050602082019050919050565b610e5481610bb9565b82525050565b610e6381610c3c565b82525050565b600082825260208201905092915050565b6000610e8582610c5d565b610e8f8185610e69565b9350610e9f818560208601610c79565b610ea881610a34565b840191505092915050565b6000608083016000830151610ecb6000860182610e4b565b506020830151610ede6020860182610e5a565b5060408301518482036040860152610ef68282610e7a565b91505060608301518482036060860152610f108282610e7a565b9150508091505092915050565b6000610f298383610eb3565b905092915050565b6000602082019050919050565b6000610f4982610e1f565b610f538185610e2a565b935083602082028501610f6585610e3b565b8060005b85811015610fa15784840389528151610f828582610f1d565b9450610f8d83610f31565b925060208a01995050600181019050610f69565b50829750879550505050505092915050565b60006020820190508181036000830152610fcd8184610f3e565b905092915050565b7f4e487b7100000000000000000000000000000000000000000000000000000000600052601160045260246000fd5b600061100f82610bb9565b91507fffffffffffffffffffffffffffffffffffffffffffffffffffffffffffffffff82141561104257611041610fd5565b5b600182019050919050565b600060208201905081810360008301526110678184610cac565b905092915050565b7f4e487b7100000000000000000000000000000000000000000000000000000000600052602260045260246000fd5b600060028204905060018216806110b657607f821691505b602082108114156110ca576110c961106f565b5b50919050565b7f596f7520617265206e6f7420746865206f776e6572206f66207468697320707260008201527f6f647563742e0000000000000000000000000000000000000000000000000000602082015250565b600061112c602683610c68565b9150611137826110d0565b604082019050919050565b6000602082019050818103600083015261115b8161111f565b9050919050565b7f4e487b7100000000000000000000000000000000000000000000000000000000600052603260045260246000fdfea26469706673582212208db1b9d2035a98ccc875d4f276f2ef9a47dc8de2d1f22cfece39747e67d1b65e64736f6c634300080b0033",
  "immutableReferences": {},
  "source": "// SPDX-License-Identifier: MIT\npragma solidity >=0.4.22 <0.9.0;\n\ncontract SupplyChain {\n\n    // Events\n    event ProductCreated(\n        address indexed from,\n        uint256 indexed productId,\n        string productName\n    );\n    event ProductTransferred(\n        address indexed from,\n        address indexed to,\n        uint256 indexed productId\n    );\n    event ProductStatusChanged(\n        uint256 indexed productId,\n        string status\n    );\n\n    // State Variables\n    struct Product {\n        uint256 id;\n        address owner;\n        string productName;\n        string status;\n    }\n\n    mapping(uint256 => Product) products;\n    uint256 productCounter;\n\n    // Methods\n    function getUserProducts(address _user) public view returns (Product[] memory) {\n        Product[] memory result = new Product[](productCounter);\n        uint resultIndex = 0;\n\n        for (uint i = 0; i <= productCounter; i++) {\n            if (products[i].owner == _user) {\n                result[resultIndex] = products[i];\n                resultIndex++;\n            }\n        }\n        return result;\n    }\n\n    function createProduct(string memory _productName) public {\n        productCounter++;\n        products[productCounter] = Product(productCounter, msg.sender, _productName, \"Created\");\n        emit ProductCreated(msg.sender, productCounter, _productName);\n    }\n\n    function transferProduct(uint256 _productId, address _to) public {\n        require(products[_productId].owner == msg.sender, \"You are not the owner of this product.\");\n        products[_productId].owner = _to;\n        emit ProductTransferred(msg.sender, _to, _productId);\n    }\n\n    function updateProductStatus(uint256 _productId, string memory _status) public {\n        require(products[_productId].owner == msg.sender, \"You are not the owner of this product.\");\n        products[_productId].status = _status;\n        emit ProductStatusChanged(_productId, _status);\n    }\n\n    function getProduct(uint256 _productId) public view returns (address, string memory, string memory) {\n        return (products[_productId].owner, products[_productId].productName, products[_productId].status);\n    }\n}",
  "sourcePath": "/Users/dragos/Documents/sinc/supply-chain-management/src/contracts/SupplyChain.sol",
  "compiler": {
    "name": "solc",
    "version": "0.8.11+commit.d7f03943.Emscripten.clang"
  },
  "schemaVersion": "3.4.4",
  "updatedAt": "2023-01-14T18:32:44.221Z",
  "networkType": "ethereum",
  "devdoc": {
    "kind": "dev",
    "methods": {},
    "version": 1
  },
  "userdoc": {
    "kind": "user",
    "methods": {},
    "version": 1
  }
}